:020000040800F2
:10000000E80800209D1B0008190300081B030008D6
:100010001F03000823030008270300080000000056
:100020000000000000000000000000002B0300089A
:100030002D030008000000002F0300083103000812
:10004000B71B0008B71B0008B71B0008B71B000848
:10005000B71B0008B71B0008B71B0008B71B000838
:10006000B71B0008B71B0008E9150008B71B0008FC
:10007000B71B0008B71B0008B71B0008B71B000818
:10008000B71B0008B71B0008B71B0008B71B000808
:10009000B71B0008B71B0008B71B0008B71B0008F8
:1000A000B71B0008B71B0008B71B0008B71B0008E8
:1000B0007D1600084D020008B71B0008B71B00089A
:1000C000B71B0008B71B0008B71B0008B71B0008C8
:1000D000B71B0008131B00086B020008B71B0008C1
:1000E000B71B0008B71B0008B71B0008B71B0008A8
:1000F000B71B0008B71B0008B71B0008B71B000898
:10010000B71B0008B71B0008B71B0008B71B000887
:10011000B71B0008B71B0008B71B0008B71B000877
:10012000B71B0008B71B0008B71B0008B71B000867
:1001300000F002F800F03AF80AA090E8000C8244BF
:100140008344AAF10107DA4501D100F02FF8AFF29C
:10015000090EBAE80F0013F0010F18BFFB1A43F0A5
:10016000010318477480000094800000103A24BFF7
:1001700078C878C1FAD8520724BF30C830C144BF0C
:1001800004680C607047000000230024002500264E
:10019000103A28BF78C1FBD8520728BF30C148BFEA
:1001A0000B6070471FB51FBD10B510BD03F0BCFA42
:1001B0001146FFF7F7FF00F021F803F0DAFA03B475
:1001C000FFF7F2FF03BC01F049FC000070B50446E4
:1001D000002500BF04E04FF47A7001F012FC6D1CA2
:1001E000A542F8DB70BD10B501F0B8FA0446012C49
:1001F00003D0022C01D101F03BF910BD01F0C4FB8A
:100200004FF4A06002F06EFA01F004F94FF41650BA
:1002100000F080F94FF4165000F0DDF900F05CFAC0
:1002200001F0CFF841F61F4142F20F7001F07CFB64
:1002300001F09DF901F049FA2F4800F037FA04E087
:100240000A2001F0DEFBFFF7CEFFF9E710B5012130
:100250002A4803F03CFA38B10121284803F048FA53
:100260000821274800F0FFF910BD10B540F22551D4
:10027000244802F0F3F9002838D0224802F06EF941
:10028000C4B221480068401C1F4908600846006845
:10029000012803D1012C01D0002008601A48006811
:1002A000022804D1032C02D0002017490860164808
:1002B000006807281AD10020134908601348006815
:1002C000A04213D0442C07D10B4800F0EFF90F489F
:1002D000046000200E490860F42C07D10D4800F09E
:1002E000E5F90A4804600120094908602021054811
:1002F00002F0ABF910BD00000A000020000400402D
:100300001E000020004400402C0000202800002097
:10031000A001214200000020704700BFFEE700BF9F
:10032000FEE700BFFEE700BFFEE77047704770477B
:10033000704700000CB50020019000906C480068E8
:1003400040F480306A49086000BF6948006800F4E2
:10035000003000900198401C0190009818B9019855
:10036000B0F5A06FF1D16248006800F4003010B120
:100370000120009001E0002000900098012843D166
:100380005C48006840F010005A4908600846006860
:1003900020F0030008600846006840F00200086092
:1003A00053484068524948600846406848600846DB
:1003B000406840F4806048600846406820F47C1043
:1003C00048600846406840F4E81048600846006805
:1003D00040F08070086000BF4548006800F0007081
:1003E0000028F9D04248406820F0030040494860A6
:1003F0000846406840F00200486000BF3C48406842
:1004000000F00C000828F9D10CBD10B5FFF792FFE1
:1004100010BD10B53648006840F00100344908604E
:100420000846406834490840314948600846006839
:10043000324908402E4908600846006820F48020B0
:1004400008600846406820F4FE0048604FF41F0032
:100450008860FFF7DAFF4FF000602949086010BD9F
:1004600010B5002100200022214B5B6803F00C0135
:1004700021B1042906D0082928D107E0214B224CBC
:10048000236027E01F4B204C236023E0184B5B6860
:1004900003F47010164B5B6803F48032022303EB05
:1004A000904022B9194B4343174C23600DE0104B89
:1004B0005B6803F4003323B1144B4343124C2360B5
:1004C00003E0104B4343104C236003E00D4B0E4CF4
:1004D000236000BF00BF064B5B68C3F303130C4CE3
:1004E000E15C094B1B68CB40074C236010BD00004A
:1004F00000100240002002400000FFF8FFFFF6FE5F
:1005000008ED00E000127A003000002000093D00F4
:100510003400002010B586B004460121480401F0E3
:1005200086FE0121052001F075FE0420ADF81400BF
:1005300003208DF8160018208DF8170005A96148D2
:1005400001F0ACFB0820ADF8140004208DF8170072
:1005500005A95C4801F0A2FB0220ADF814001020B0
:100560008DF8170003208DF8160005A9554801F0F5
:1005700095FB01940020ADF80800ADF80A00ADF835
:100580000C00ADF810000C20ADF80E0001214E4813
:1005900001F073FF40214C4802F057F8012240F26D
:1005A0002551494801F075FF01A9474801F0D9FEDE
:1005B00026208DF8000000208DF8010001208DF824
:1005C00002008DF80300684602F091F800203F49D0
:1005D000086006B010BD10B586B004460194002036
:1005E000ADF80800ADF80A00ADF80C00ADF8100049
:1005F0000C20ADF80E000121112001F00BFE0121AD
:10060000C80401F014FE4FF48060ADF81400182007
:100610008DF8170003208DF8160005A92C4801F06D
:100620003DFB4FF40060ADF8140004208DF8170076
:1006300005A9274801F032FB01A9264801F091FEE7
:100640000121244801F019FF06B010BD00BF1E496A
:10065000098801F080010029F9D0C0F308011A4A85
:10066000121D1180704770B505460E46002401200A
:100670001649086000BF03E0285DFFF7E7FF641C30
:10068000B442F9DB0A2001F0BCF900200F490860F0
:1006900070BD00BF0F49098801F080010029F9D021
:1006A000C0F308010B4A121D1180704700B50346C4
:1006B00003E013F8010BFFF7ECFF18780028F8D1DE
:1006C00000BD0000000801400044004084012142B8
:1006D00000100140004C004008B50121082001F045
:1006E00099FD4FF44060ADF8000003208DF8020042
:1006F00014208DF803006946F84801F0CFFA08BDD0
:10070000142001E0411EC8B20028FBD1704710B58B
:100710004FF48061F14801F070FBFFF7F1FF4FF4F7
:100720000061EE4801F069FBFFF7EAFF4FF48061DA
:10073000EA4801F060FBFFF7E3FF4FF40061E74890
:1007400001F059FBFFF7DCFF10BD10B54FF48061DD
:10075000E24801F052FBFFF7D3FF4FF40061DF489E
:1007600001F049FBFFF7CCFF4FF48061DB4801F05B
:1007700042FBFFF7C5FFD9480830006800F400606D
:1007800030B14FF48061D54801F037FB002010BD37
:100790004FF48061D14801F030FB0120F7E770B5DC
:1007A000044608251FE04FF48061CC4801F025FB8A
:1007B000FFF7A6FF04F0800028B14FF40061C7489E
:1007C00001F019FB04E04FF40061C44801F015FB8F
:1007D0006006040EFFF794FF4FF48061BF4801F0FC
:1007E0000AFBFFF78DFF2800A5F10101CDB2DAD198
:1007F0004FF48061B94801F000FB70BD10B54FF4B3
:100800000061B64801F0F7FA4FF48061B34801F097
:10081000F2FAFFF775FFB1480830006808B9012007
:1008200000E0002000F4006008B1002010BD4FF48B
:100830000061AA4801F0E1FAFFF762FFA74808301B
:10084000006800F4006008B10020EFE74FF4006199
:10085000A24801F0D2FAFFF753FF0120E6E770B596
:1008600004460D461646FFF7C9FF08B9002070BDC3
:100870002846FFF794FFFFF768FF18B9FFF747FF17
:100880000020F4E70AE02078FFF789FFFFF75DFF1B
:1008900018B9FFF73CFF0020E9E7641C3000A6F11F
:1008A0000101CEB2EFD1FFF732FF0120DFE710B533
:1008B0004FF48061894801F0A0FAFFF721FF4FF45F
:1008C0000061864801F099FAFFF71AFF4FF4806142
:1008D000824801F090FAFFF713FF4FF480617F48E0
:1008E00001F08BFAFFF70CFF10BD10B54FF48061DB
:1008F0007A4801F082FAFFF703FF4FF4006177486E
:1009000001F079FAFFF7FCFE4FF48061734801F0C3
:1009100072FAFFF7F5FE4FF48061704801F06DFA4E
:10092000FFF7EEFE10BD70B50825002429026B48C4
:1009300001F061FA17E06006040E4FF48061674829
:1009400001F05BFAFFF7DCFE4FF48061634801F0D1
:1009500052FAFFF7D5FE61480830006800F40060E5
:1009600008B144F001042800A5F10101CDB2E2D1A3
:100970004FF48061594801F040FA204670BD70B5CF
:1009800005460C461646FFF739FF08B9002070BD32
:10099000E0B2FFF704FFFFF7D8FE18B9FFF7B7FE84
:1009A0000020F4E7E0B2FFF7FAFEFFF7CEFE28469C
:1009B000FFF7F5FEFFF7C9FEFFF7A9FE0120E6E706
:1009C0002DE9F04104460E4615461F46FFF716FF77
:1009D00010B90020BDE8F0814FF6FE71394005F4F2
:1009E000E06241EAE210FFF7DAFEFFF7AEFE18B967
:1009F000FFF78DFE0020EDE7E8B2FFF7D0FEFFF72E
:100A0000A4FE05E02078FFF7CAFEFFF79EFE641CF7
:100A10003000A6F10101CEB2F4D1FFF778FE01203B
:100A2000D8E72DE9F04106460D461746FFF7E6FEEA
:100A300010B90020BDE8F0813846FFF7B0FEFFF79F
:100A400084FE18B9FFF763FE0020F3E7002409E0F5
:100A5000FFF769FF3055681EA04201D0FFF727FF5E
:100A6000601CC4B2AC42F3DBFFF73FFFFFF74FFE61
:100A70000120DFE710B54FF40061184801F0BBF921
:100A80004FF48061154801F0B6F9FFF739FE4FF4D5
:100A90000061124801F0B1F9FFF732FE4FF48061B6
:100AA0000E4801F0AAF9FFF72BFE10BD10B54FF468
:100AB00000610A4801F09FF9FFF722FE4FF48061C0
:100AC000064801F098F9FFF71BFE0448083000685B
:100AD00000F4006020B1012403E00000000C01409C
:100AE00000244FF48061574801F087F9FFF708FEB2
:100AF000204610BD10B54FF40061524801F07DF959
:100B00004FF480614F4801F076F9FFF7F9FD4FF49B
:100B100000614C4801F06FF910BD70B50446002526
:100B200028E004F0800028B14FF40061454801F04E
:100B300062F904E04FF40061424801F05EF9FFF70A
:100B4000DFFD4FF480613F4801F055F9FFF7D8FD14
:100B50004FF480613B4801F050F9072D04D14FF468
:100B60000061384801F047F96006040EFFF7C8FD40
:100B7000681CC5B2082DD4DB70BD70B500240025FB
:100B800019E06006040E4FF480612E4801F033F93D
:100B9000FFF7B6FD2B480830006800F4006008B18C
:100BA000601CC4B24FF48061264801F026F9FFF7BB
:100BB000A7FD681CC5B2082DE3DB204670BD70B5EB
:100BC00004460D46FFF756FF44EA0500FFF7A5FF70
:100BD000FFF76CFF0646FFF78DFF304670BD10B57E
:100BE0004FF40061174801F008F9FFF789FD4FF451
:100BF0008061144801F0FFF8FFF782FD4FF4806137
:100C0000104801F0FAF8FFF77BFD4FF400610D4842
:100C100001F0F1F810BD10B54FF40061094801F082
:100C2000EAF8FFF76DFD4FF48061064801F0E3F844
:100C3000FFF766FD4FF48061024801F0DEF8FFF730
:100C40005FFD10BD000C014008B50121042001F03A
:100C5000E1FA0220ADF8000010208DF80300032017
:100C60008DF802006946FE4801F018F80221FC48A0
:100C700001F0C1F8642000F0C4FE0221F84801F040
:100C8000BCF84FF4FA7000F0BCFE0221F44801F009
:100C9000B2F808BD2DE9F04780460D4616461F46BE
:100CA0004FEA252905F0FF0AFFF7A8FD10B900203B
:100CB000BDE8F0874046FFF772FDFFF746FD18B923
:100CC000FFF725FD0020F3E74846FFF768FDFFF733
:100CD0003CFD18B9FFF71BFD0020E9E75046FFF780
:100CE0005EFDFFF732FD002406E0305DFFF757FDA3
:100CF000FFF72BFD601C84B2BC42F6DBFFF707FD5B
:100D00000120D5E72DE9F04780460D4616461F46DF
:100D10004FEA252905F0FF0AFFF770FD10B9002002
:100D2000BDE8F0874046FFF73AFDFFF70EFD18B922
:100D3000FFF7EDFC0020F3E74846FFF730FDFFF733
:100D400004FD18B9FFF7E3FC0020E9E75046FFF780
:100D500026FDFFF7FAFC18B9FFF7D9FC0020DFE702
:100D60004FF40061BF4801F048F8FFF7C9FC4FF4A9
:100D70000061BC4801F03FF8FFF740FD08F10101B8
:100D8000C8B2FFF70CFDFFF7E0FC18B9FFF7BFFC96
:100D90000020C5E7002406E0FFF7C5FD3055FFF74A
:100DA00086FD601C84B2781EA042F5DCFFF7BBFD17
:100DB000791E7054FFF799FDFFF7A9FC0120AFE7FA
:100DC000F8B505460E46144620128DF80000E0B234
:100DD0008DF8010002236A4631462846FFF75AFF84
:100DE000F8BD2DE9F04F85B08346002400BF49E0EF
:100DF00004EB440040F6226101EB800240F61A0148
:100E00005846FFF7DDFF032304AA40F61A015846AF
:100E1000FFF778FF9DF8101009049DF8112041EAB2
:100E200002219DF8122041EA020004F047F807462B
:100E300000228D4B03F076FE00228C4BCDE90001A1
:100E400004F0B2FA8A4A8B4BCDE9020104F086F82D
:100E5000054603F0BFFF60304FFA80F9B9F1600F2B
:100E600001DD4FF06009B9F1300F02DC4FF00009ED
:100E700003E0A9F130004FFA80F97F4901F80490AE
:100E8000601CC4B20E2CB3DB7B4800794FFA80FAA9
:100E90007948C0797849087181F807A008464079F7
:100EA0004FFA80FA08468079487181F806A005B0AB
:100EB000BDE8F08F2DE9F04706460D461446EFB227
:100EC0004FEA25284FF00009FFF798FC3046FFF75E
:100ED00066FCFFF73AFC20B9FFF719FC0020BDE8DB
:100EE000F0874046FFF75BFCFFF72FFC18B9FFF7D0
:100EF0000EFC0020F3E73846FFF751FCFFF725FC16
:100F000018B9FFF704FC0020E9E74846FFF747FC63
:100F1000FFF71BFC18B9FFF7FAFB0020DFE720788A
:100F2000FFF73DFCFFF711FC18B9FFF7F0FB0020BD
:100F3000D5E76078FFF733FCFFF707FC18B9FFF738
:100F4000E6FB0020CBE7A078FFF729FCFFF7FDFBCD
:100F500018B9FFF7DCFB0020C1E7E078FFF71FFCC2
:100F6000FFF7F3FB18B9FFF7D2FB0020B7E7FFF755
:100F7000CEFB0120B3E72DE9F04706460C461546A7
:100F8000E7B24FEA242805F0FF094FEA252AFFF7C8
:100F900035FC3046FFF703FCFFF7D7FB20B9FFF71E
:100FA000B6FB0020BDE8F0874046FFF7F8FBFFF7EF
:100FB000CCFB18B9FFF7ABFB0020F3E73846FFF78F
:100FC000EEFBFFF7C2FB18B9FFF7A1FB0020E9E732
:100FD0005046FFF7E4FBFFF7B8FB18B9FFF797FBA4
:100FE0000020DFE74846FFF7DAFBFFF7AEFB18B952
:100FF000FFF78DFB0020D5E7FFF789FB0120D1E744
:101000002DE9F34F83B08B461CA000680290584630
:1010100004F0B4FA064632460B461548184902F069
:1010200041FF04460022174B03F098FF804603F06F
:1010300001FF82464FEA1A608DF800004FEA1A401D
:101040008DF801004FEA1A208DF802000AF0FF0027
:101050008DF8030000208DF804008DF8050013E0E2
:1010600000080140000C0140000020410000F03F5A
:1010700085EB51B81E155840A4000020003C00002C
:101080001E85EC3F0000604108208DF8060000201E
:101090008DF807006A464FF401610398FFF70AFFD5
:1010A0004FF47A7000F089FC642240F61501039831
:1010B000FFF761FF4FF47A7000F07FFC01AA40F661
:1010C00011010398FFF7F6FE4FF47A7000F075FCFB
:1010D000652240F616010398FFF74DFF4FF47A7032
:1010E00000F06BFC022302AA40F61C010398FFF7F4
:1010F000D1FD05B0BDE8F08F2DE9F05F07460C4645
:1011000016464FF001094FEAC95004F0A3FB83468D
:10111000394604F0B7FB824604F080FB804616B9DE
:1011200008EBC96500E04546E570280AA070280C68
:101130006070280E20701EB9207880F008002070A2
:10114000BDE8F09F2DE9F74F98B00D461746AFF276
:10115000D4000068119000200A90322F03DAA7F122
:10116000180040B20A900A9804F074FB9D4904905C
:1011700004F092FA059004F001FA02460B46CDE91C
:1011800006010020984902F08DFECDE9080103F028
:10119000DBFB8146954951F8250004F0EFF9944AAC
:1011A000944BCDE9060103F0BDFCCDE9080103F045
:1011B000CBFB8246504604F0E1F9CDE9040103F08F
:1011C0004DFB8D4A8D4BCDE9060103F0ABFCCDE91B
:1011D000080103F0B9FB83464946584604F05CFA1F
:1011E0004FF07E51099004F0F5F980464946584683
:1011F00004F048FB4FF07E51089004F0EBF94146B3
:10120000099004F049FA1490404604F0B7F9CDE98A
:101210000601504604F0B2F9CDE9000102F0F4FDF8
:1012200000224FF08043CDE9020103F097FE81F0E8
:101230000041CDE90401DDE9062303F073FCCDE9AB
:10124000080103F081FB13904946584604F01AFB4D
:101250004FF07E51089004F0E1FB4146099004F004
:101260001BFA1290404604F089F9CDE90601504678
:1012700004F084F9CDE9000102F0C6FD00224FF030
:101280004043CDE9020103F069FE81F00041CDE960
:101290000401DDE9062303F045FCCDE9080103F074
:1012A00053FB16904946584604F0F6F94FF07E512C
:1012B000089004F0B3FB80F000404146099004F030
:1012C000EBF9159001220BA91498FFF715FF0122E5
:1012D0000CA91398FFF710FF01220DA91298FFF730
:1012E0000BFF01220EA91698FFF706FF01220FA996
:1012F0001598FFF701FF002627E01EB905EB8500D2
:10130000109003E005EB850032301090002411E0CE
:101310000BA800EB840204F501611898FFF7CAFDE1
:101320001098204482B204F615011898FFF723FEA6
:10133000601CC4B2052CEBDB022311AA40F61C0191
:101340001898FFF7A7FC701CC6B2022ED5DB1BB0A5
:10135000BDE8F08F10B504460223294A40F61C016F
:101360002046FFF797FC08B9002010BD4FF4A053AA
:10137000244A4FF480612046FFF78CFC08B9002016
:10138000F3E74FF48053204A00212046FFF782FC08
:1013900008B90020E9E718231C4A40F61C01204642
:1013A000FFF778FC08B90020DFE70223184A40F66F
:1013B0001C012046FFF76EFC08B90020D5E701208C
:1013C000D3E710B506E02046611CCCB21E2801DD33
:1013D000002010BD6820FFF7BDFF0028F3D00120DA
:1013E000F7E70000000020420000244044000020F5
:1013F0005A643BDF6FD7BD408FC2F5285C8F064033
:10140000228000080A5C00080A7000080A800008B0
:101410002480000808B501210C2000F0FBFE4FF4E9
:101420008070ADF8000010208DF8030003208DF8C7
:10143000020069460B4800F031FC4020ADF8000086
:1014400010208DF8030003208DF80200694606483D
:1014500000F024FC4021044800F0CDFC00200349AA
:10146000086008BD00080140000C0140A0012142B5
:1014700010B5F74880781F286AD014DC09285FD09F
:1014800008DC012858D0022822D0062838D00728A6
:101490006AD12DE00D285FD0142841D01A285FD0E2
:1014A0001D2861D150E0472832D008DC402833D0D5
:1014B000442829D045283BD0462855D134E04A2835
:1014C0001AD0512808D052280AD053284CD10BE00A
:1014D000E0A0FFF7EBF848E0E0A0FFF7E7F844E012
:1014E000E0A0FFF7E3F840E0E0A0FFF7DFF83CE022
:1014F000E0A0FFF7DBF838E0E1A0FFF7D7F834E031
:10150000E2A0FFF7D3F830E0E2A0FFF7CFF82CE03D
:10151000E2A0FFF7CBF828E0E2A0FFF7C7F824E04D
:10152000E3A0FFF7C3F820E0E3A0FFF7BFF81CE05B
:10153000E3A0FFF7BBF818E0E3A0FFF7B7F814E06B
:10154000E3A0FFF7B3F810E0E4A0FFF7AFF80CE07A
:10155000E5A0FFF7ABF808E0E6A0FFF7A7F804E086
:10156000E7A0FFF7A3F800E000BF00BF10BD1FB564
:101570000121042000F04EFE1020ADF80C004820A0
:101580008DF80F0003A9E14800F088FB042100203A
:1015900000F09AFC1020019000208DF808000C202B
:1015A0008DF8090001208DF80A0001A801F016F954
:1015B0000121084600F02EFE00214FF0006001F0EE
:1015C000C8F84FF4C06001F08DF80A208DF80000D3
:1015D00000208DF801008DF8020001208DF8030035
:1015E000684601F084F81FBD10B5102001F05CF9C9
:1015F000002841D0C648007818B1102001F065F9E4
:1016000010BD01224121880701F0B3FDC1480078D7
:1016100080B900214FF0804002F024F80020BE493C
:101620000880BC480078401CBA490870102001F0BE
:101630004CF9E5E7B748007821281DDC4FF08040E1
:1016400002F033F8B449098840F27122514300EBAB
:1016500081140021900702F005F80020AE490880AF
:10166000AC4801780078401CAA4A1070AB4840F89A
:101670002140102001F029F900BFC1E710B5012178
:10168000880702F024F8F8B1A3480088401CA2495A
:10169000088008460088012812DD9E48007821282D
:1016A00006DB01209A49087000209A49087002E080
:1016B00000209849087000224121880701F059FD57
:1016C0000121880702F014F810BD1FB5012108465A
:1016D00000F0ADFD4FF0804001F000F949F64040C8
:1016E000ADF804000020ADF80000ADF80600ADF83C
:1016F00002008DF8080069464FF0804001F0C2F901
:1017000001224821C80601F0C0FD0121880701F02F
:10171000DBFF00224121880701F02BFD0121880712
:1017200001F00CFD0121084600F074FD00214FF08E
:10173000006001F00EF81C208DF80C004FF4C06022
:1017400000F0D0FF00208DF80D008DF80E00012074
:101750008DF80F0003A800F0CAFF1FBD70B500236D
:10176000002400256A48007808B9002070BD6B4845
:1017700040684CF25036B04203D20020644E3070C4
:10178000F4E70020664E307000212FE0002229E0AF
:1017900002EBC100801C614E56F82030B3F5FA6FA1
:1017A0000BD940F6C410834207D22948405C012679
:1017B00096403043264E705412E0B3F57A7F0BD931
:1017C00040F2DC50834207D22148405C012696401B
:1017D000B0431F4E705403E000204D4E3070C5E7FB
:1017E000501CC2B2082AD3DB481CC1B20429CDDB8D
:1017F00017484078C043C4B21548C078C043C5B24A
:101800001348007890280FD111480078A0420BD1DE
:101810000F488078A84207D100203D4E30706420E8
:10182000404E30800120A1E70948007858B90848A7
:101830004078FF2807D10020354E30706420394EA3
:101840003080022092E70020314E307000BF8DE7DB
:1018500077000020464A445655500000464A4456F8
:10186000444E0000464A444E45585400464A4450AF
:1018700052455600464A44454E5445520000000029
:10188000464A4452455455524E000000464A44557B
:1018900050000000464A44444E000000464A444C72
:1018A00045465400464A4452494748540000000007
:1018B000464A44504F570000464A444D555445004F
:1018C000464A444657440000464A445245560000A2
:1018D000464A444D4F56494500000000464A444D93
:1018E0005553494300000000464A4450484F544F66
:1018F00000000000464A4445424F4F4B00000000A4
:10190000464A445250544F4E4500000000080140E2
:10191000760000207500002082000020BC0000201E
:101920007E0000207C0000207FB505460C4601218A
:10193000022000F07CFCADF80850ADF80440002017
:10194000ADF80A00ADF8060001A90E4801F09AF8BA
:10195000012211460B4801F00CFC1D208DF80000FF
:1019600000208DF8010003208DF8020001208DF881
:101970000300684600F0BBFE0121024801F0DEFBD7
:101980007FBD00000004004010B56FF0040000F0BF
:10199000F8FE2E4800682E49B0FBF1F02D49087082
:1019A0000846007800EB4001C1EBC0104FF6FF7114
:1019B00001EAC0002849088010BD0146254A127876
:1019C0004A434FF0E0235A6100229A611A46126995
:1019D00042F001021A6100BF4FF0E022106900F0EE
:1019E00001021AB100F48032002AF5D04FF0E02253
:1019F000126922F001024FF0E0231A6100229A617D
:101A000070470146144A12884A434FF0E0235A6156
:101A100000229A611A46126942F001021A6100BF5F
:101A20004FF0E022106900F001021AB100F4803298
:101A3000002AF5D04FF0E022126922F001024FF0A7
:101A4000E0231A6100229A617047000030000020F4
:101A500000127A008400002086000020014600BFAA
:101A6000704700BF494A128802F04002002AF9D0AC
:101A7000C2B2464B1B1D1A80704710B586B0044693
:101A8000012144F2040000F0C5FB4FF40070ADF8F2
:101A9000140003208DF8160018208DF8170005A9F2
:101AA0003B4800F0FBF84FF48060ADF814000420D0
:101AB0008DF8170005A9364800F0F0F825208DF8BC
:101AC000000003208DF801008DF8020001208DF840
:101AD0000300684600F00BFE01940020ADF80800FA
:101AE000ADF80A00ADF80C00ADF810000C20ADF810
:101AF0000E0001A9254800F034FC012240F22551D6
:101B0000224800F0C6FC0121204800F0B6FC06B0D7
:101B100010BD10B540F225511C4800F09FFD10B3D8
:101B20001A4800F01BFDC4B21A48008800F40040B7
:101B3000C8B91848008800F4804060B10A2C03D06E
:101B400000201449088020E01248008840F400403A
:101B50001049088019E00D2C06D10E48008840F489
:101B600080400C49088010E00A480088C0F30D004E
:101B700009490C5407480088401C0649088008465B
:101B80000088C72801DD0020088010BD0038014012
:101B9000000801408C000020BC010020094880475B
:101BA00009480047FEE7FEE7FEE7FEE7FEE7FEE73F
:101BB000FEE7FEE7FEE7FEE704480549054A064B57
:101BC000704700001304000831010008E8020020FB
:101BD000E8080020E8040020E804002010B50446CE
:101BE000CC48844208D10121042000F02DFB0021C3
:101BF000042000F029FB46E0C748844208D10121B7
:101C0000082000F021FB0021082000F01DFB3AE035
:101C1000C248844208D10121102000F015FB0021A8
:101C2000102000F011FB2EE0BD48844208D10121B4
:101C3000202000F009FB0021202000F005FB22E01D
:101C4000B848844208D10121402000F0FDFA00216B
:101C5000402000F0F9FA16E0B348844208D101218F
:101C6000802000F0F1FA0021802000F0EDFA0AE077
:101C7000AE48844207D10121801500F0E5FA002129
:101C8000A01500F0E1FA10BD10B50121084600F0E2
:101C9000DBFA0021012000F0D7FA10BD2DE9F04158
:101CA000024600250026002000230024002791F88A
:101CB00003C00CF00F0591F803C00CF0100CBCF140
:101CC000000F03D091F802C04CEA050591F800C05E
:101CD000BCF1000F31D0146800202BE04FF0010C54
:101CE0000CFA00F3B1F800C00CEA03069E4220D1C2
:101CF00083004FF00F0C0CFA03F7BC4305FA03FC0A
:101D00004CEA040491F803C0BCF1280F06D14FF04F
:101D1000010C0CFA00FCC2F814C00AE091F803C0F0
:101D2000BCF1480F05D14FF0010C0CFA00FCC2F8D1
:101D300010C0401C0828D1D31460B1F800C0BCF119
:101D4000FF0F34DD546800202EE000F1080C4FF046
:101D5000010808FA0CF3B1F800C00CEA03069E4231
:101D600021D183004FF00F0C0CFA03F7BC4305FAA6
:101D700003FC4CEA040491F803C0BCF1280F05D120
:101D800000F1080C08FA0CF8C2F8148091F803C0AE
:101D9000BCF1480F07D100F1080C4FF0010808FA18
:101DA0000CF8C2F81080401C0828CED35460BDE85F
:101DB000F0814FF6FF710180022181700421C17012
:101DC00070470246002093680B400BB1012000E0F1
:101DD000002070470146886880B2704702460020A4
:101DE000D3680B400BB1012000E000207047014692
:101DF000C86880B2704701617047416170470AB19D
:101E0000016100E041617047C16070474FF480326A
:101E10000A438261816182618269826970470246F8
:101E20000020434B18684FF68073184040EA0210B8
:101E300008433F4B186070473E49C8617047F0B592
:101E40000A46002300240021002500F00046B6F1D8
:101E5000004F02D1364EF16901E0354E7168C0F392
:101E6000034583B200F44016B6F5401F08D121F0B7
:101E700070612F4E766826F070662D4F7E6012E0FE
:101E800000F48016B6F5801F06D1032606FA05F485
:101E9000A14341F0706106E0460D360103FA06F6F3
:101EA000B14341F0706122B1460D360103FA06F6E6
:101EB000314300F00046B6F1004F02D11C4EF161F3
:101EC00001E01B4E7160F0BD30B500228B071C0F86
:101ED0000F2303FA04F2164B08338C1053F8243006
:101EE0009343134C08348D1044F8253023468C104E
:101EF00053F824308C07240F00FA04F423430C4CCD
:101F000008348D1044F8253030BD0A49DC310860B2
:101F10007047000000080140000C01400010014023
:101F20000014014000180140001C01400020014045
:101F30000000014000002042DF48006840F001003E
:101F4000DD49086008464068DC490840DA494860D5
:101F500008460068DA490840D74908600846006822
:101F600020F4802008600846406820F4FE004860A5
:101F70004FF41F0088607047CF49096821F4803111
:101F8000CD4A11601146096821F480211160B0F535
:101F9000803F03D0B0F5802F0ED106E0C649096816
:101FA00041F48031C44A116007E0C349096841F433
:101FB000A021C14A116000E000BF00BF704710B50A
:101FC00001460022002300204A11012A02D1BA4C06
:101FD000236806E0022A02D1B74C236A01E0B64C1E
:101FE000636A01F01F02012494401C400CB10120DF
:101FF00000E0002010BD38B500200090002400252E
:1020000000BF3120FFF7DBFF05460098401C009021
:102010000098B0F5A06F01D0002DF2D03120FFF76D
:10202000CEFF08B1012400E00024204638BD01465F
:102030000020A14A106820F0F80040EAC1001060BA
:102040007047A04908607047024600209A4B5868C4
:1020500020F47C1042EA01031843974B5860704704
:1020600098490866704701460020934A506820F05E
:1020700003000843506070478F48406800F00C0030
:102080007047014600208C4A506820F0F000084359
:102090005060704701460020874A506820F4E06095
:1020A00008435060704701460020834A506820F47E
:1020B000605040EAC1005060704729B17E4A527AB0
:1020C00002437D4B5A7204E07B4A527A82437A4B38
:1020D0005A7270477B49D83108607047014600202A
:1020E000754A506820F44040084350607047002112
:1020F000714A20321170704A82F82010012802D0F3
:1021000004280AD104E001216B4A2032117005E055
:102110000521694A2032117000E000BF00BF7047FE
:102120006949086070476449096A0143624A11625B
:102130007047654944390860704730B50021002276
:10214000002400235C4D6D6805F00C0121B10429C9
:1021500005D0082923D105E05C4D056022E05B4DE8
:1021600005601FE0544D6D6805F47012524D6D68A6
:1021700005F48034022505EB92421CB9544D5543B9
:1021800005600BE04C4D6D6805F400351DB1504DF8
:102190005543056002E04D4D5543056002E04B4D4F
:1021A000056000BF00BF444D6D6805F0F0010909EE
:1021B000484D6B5C0568DD4045603F4D6D6805F43A
:1021C000E061090A434D6B5C4568DD4085603A4D2E
:1021D0006D6805F46051C90A3E4D6B5C4568DD4091
:1021E000C560354D6D6805F44041890B3A4D6B5C17
:1021F000C568B5FBF3F5056130BD29B12E4A5269BA
:1022000002432D4B5A6104E02B4A526982432A4B08
:102210005A61704729B1284A92690243264B9A6154
:1022200004E0254A92698243234B9A61704729B1A1
:10223000214AD2690243204BDA6104E01E4AD26986
:1022400082431D4BDA61704729B11B4AD2680243B1
:10225000194BDA6004E0184AD2688243164BDA6000
:10226000704729B1144A12690243134B1A6104E002
:10227000114A12698243104B1A6170471249403962
:10228000086070470F49C86470470B49C8717047B0
:102290000948406A40F0807007494862704701462B
:1022A0000020054A92680A400AB1012000E000209F
:1022B0007047014988727047001002400000FFF823
:1022C000FFFFF6FE000042428004424200127A0004
:1022D00000093D008E0000209E00002010B504463D
:1022E000FB48844209D101218803FFF7ADFF00219B
:1022F0004FF48040FFF7A8FF32E0F648844209D14E
:1023000001214804FFF7ADFF00214FF40030FFF733
:10231000A8FF25E0F048844209D101218804FFF795
:10232000A0FF00214FF48020FFF79BFF18E0EB484F
:10233000844209D10121C804FFF793FF00214FF423
:102340000020FFF78EFF0BE0E548844208D1012111
:102350000805FFF786FF00214FF48010FFF781FF8B
:1023600010BD2DE9F04786B005460E460024A24672
:1023700000BFA1460027B08900B100BF2F462C8ABC
:102380004CF6FF700440F08804432C82AC894EF672
:10239000F3100440B088318908437189084304432D
:1023A000AC81AC8A4FF6FF400440B0890443AC8254
:1023B00001A8FFF7C2FEC648874202D1DDF810A08F
:1023C00001E0DDF80CA0A88900F4004040B10AEB60
:1023D000CA0000EB0A1031684900B0FBF1F807E0D1
:1023E0000AEBCA0000EB0A1031688900B0FBF1F873
:1023F0006420B8FBF0F004012009642101FB10897E
:10240000A88900F4004040B1322000EBC900B0FBC5
:10241000F1F000F00700044308E0322000EB09105F
:102420006421B0FBF1F000F00F0004432C8106B0F2
:10243000BDE8F0874FF41651016000218180C18012
:1024400001810C21418100218181704710B5024634
:102450000020108A4FF2FF0318400B884C8823435A
:102460008C882343CC8823431843108210BD00215D
:10247000018041808180C180704721B1828942F40E
:102480000052828104E082894DF6FF731A408281F6
:102490007047F0B50346002400260025002040F6D2
:1024A0006A17B94200D100BF1846C1F3421401F0C7
:1024B0001F06012707FA06F5012C01D10C3004E0B4
:1024C000022C01D1103000E014301AB107682F43FC
:1024D000076002E00768AF430760F0BD1AB1838A66
:1024E0000B43838202E0838A8B4383827047028A94
:1024F0004FF6F0731A400282028A0A430282704742
:1025000082894FF2FF731A40828182890A43828155
:10251000704721B1828942F00202828104E08289FF
:102520004FF6FD731A4082817047028A4FF6DF73BF
:102530001A400282028A0A430282704721B1028A4B
:1025400042F48042028204E0028A4BF6FF731A4092
:1025500002827047C1F30802828070470146888872
:10256000C0F308007047818941F001018181704703
:10257000028BD2B20283028B42EA012202837047AD
:10258000028B02F47F420283028B0A43028370476C
:1025900021B1828A42F02002828204E0828A4FF6D0
:1025A000DF731A408282704721B1828A42F01002A2
:1025B000828204E0828A4FF6EF731A40828270476B
:1025C00021B1828A42F00802828204E0828A4FF6B8
:1025D000F7731A408282704721B1828942F4004227
:1025E000828103E08289C2F30E028281704721B1A9
:1025F000828A42F40062828204E0828A4FF2FF7390
:102600001A4082827047828A4FF6FB731A40828298
:10261000828A0A438282704721B1828A42F0020292
:10262000828204E0828A4FF6FD731A4082827047EC
:1026300002460020B1F5007F00D100BF13880B4097
:102640000BB1012000E00020704701F40072B2F5E8
:10265000007F00D100BFCA430280704770B50246B8
:10266000002400230025002040F66A16B14200D164
:1026700000BFC1F3421501F01F03012606FA03F360
:10268000012D02D19689334006E0022D02D1168A2F
:10269000334001E0968A33400C12012606FA04F416
:1026A0001688344013B10CB1012000E0002070BD49
:1026B00010B50022002340F66A14A14200D100BFE9
:1026C0000A1201249440A3B2DC43048010BD000030
:1026D000003801400044004000480040004C0040E9
:1026E0000050004031490143314A1160704770B5D4
:1026F000002100230F22C47804B32D4C246804F475
:10270000E064C4F5E064210AC1F10403CA404478DE
:1027100004FA03F18478144021430901254C06781A
:10272000A155047804F01F050124AC4005786D1113
:10273000AD0005F1E025C5F8004109E0047804F09A
:102740001F050124AC401C4D0678761145F8264043
:1027500070BD1A4A0A400243154B1B1F1A6070478E
:1027600039B1134A121D12680243114B1B1D1A6026
:1027700006E00F4A121D126882430D4B1B1D1A60A2
:102780007047042808D14FF0E021096941F00401A5
:102790004FF0E022116107E04FF0E021096921F0DC
:1027A00004014FF0E0221161704700000000FA05BB
:1027B0000CED00E000E400E080E100E080FFFF1F9E
:1027C000002044490860091D0860091D0860091DB2
:1027D000086041483F4914310860704700213D4975
:1027E0008279002A3AD00A46126803689A430B4657
:1027F0001A600A1D126803689A430B1D1A60027959
:1028000011440A6803681A430A60324A083212689F
:1028100003689A432F4B08331A601A1D1268036825
:102820009A432C4B0C331A604279102A0ED11A1F8E
:10283000126803681A43274B08331A601A1D12687E
:1028400003681A43234B0C331A600DE02149427987
:1028500011440A6803681A430A6005E002791144CA
:102860000A6803689A430A60704700210160017199
:102870000C2141710021817170471649103109689E
:102880000143144A10321160704701460020114A7A
:10289000143212680A400AB1012000E0002070479B
:1028A0000C49143108607047014600200022094B92
:1028B0001B6803EA0102074B14331B680B4013B17A
:1028C0000AB1012000E0002070470249143108607D
:1028D0007047000000040140FFFF0F0010B50446E0
:1028E000FE48844208D10121C014FFF7ADFC00214D
:1028F000E014FFF7A9FCC4E0B4F1804F08D1012136
:102900000846FFF7AEFC00210120FFF7AAFCB8E063
:10291000F348844208D101210220FFF7A2FC0021E4
:102920000220FFF79EFCACE0EE48844208D1012172
:102930000420FFF796FC00210420FFF792FCA0E0A2
:10294000E948844208D101210820FFF78AFC0021D0
:102950000820FFF786FC94E0E448844208D1012176
:102960001020FFF77EFC00211020FFF77AFC88E0A2
:10297000DF48844208D101212020FFF772FC0021AA
:102980002020FFF76EFC7CE0DA48844208D1012168
:102990004014FFF759FC00216014FFF755FC70E06C
:1029A000D548844209D10121C804FFF74DFC00211C
:1029B0004FF40020FFF748FC63E0D048844209D17F
:1029C00001210805FFF740FC00214FF48010FFF7BC
:1029D0003BFC56E0CA48844209D101214805FFF773
:1029E00033FC00214FF40010FFF72EFC49E0C548EE
:1029F000844208D101214020FFF733FC0021402010
:102A0000FFF72FFC3DE0C048844208D1012180201F
:102A1000FFF727FC00218020FFF723FC31E0BB48B3
:102A2000844208D101218015FFF71BFC0021A0156D
:102A3000FFF717FC25E0B648844209D101210804BC
:102A4000FFF702FC00214FF48030FFF7FDFB18E098
:102A5000B048844209D101214804FFF7F5FB002169
:102A60004FF40030FFF7F0FB0BE0AB48844208D195
:102A700001218804FFF7E8FB00214FF48020FFF7D5
:102A8000E3FB10BD00220288944B98420ED0994B74
:102A900098420BD0B0F1804F08D0914B984205D0AE
:102AA000904B984202D0904B984204D14FF68F73CE
:102AB0001A404B881A438D4B984207D08C4B984252
:102AC00004D04FF6FF431A40CB881A4302808B880C
:102AD00083850B880385814B98420BD0854B9842A8
:102AE00008D08B4B984205D08A4B984202D08A4B33
:102AF000984201D10B7A038601238382704770B517
:102B0000002400220023058C4FF6FE763540058414
:102B1000028C8388048B4FF68F752C40B51E2C4099
:102B20000D882C43751E2A400D892A434D882A435F
:102B30006A4DA8420BD06F4DA84208D0744DA842F0
:102B400005D0744DA84202D0734DA84213D14FF660
:102B5000F7752A404D892A434FF6FB752A408D8828
:102B60002A434FF6FF652B404FF6FF552B408D89CA
:102B70002B43CD892B4383800483CD8885860284B3
:102B800070BD70B5002400220023058C4FF6EF764F
:102B900035400584028C8388048B48F6FF752C40F1
:102BA0004FF6FF452C400D884FF6FF7606EA0525C7
:102BB0002C434FF6DF752A400D8906EA05152A4396
:102BC0004D8806EA05152A43444DA84202D0494DD6
:102BD000A8421DD14FF67F752A404D894FF6FF76EA
:102BE00006EA05152A434FF6BF752A408D8806EA86
:102BF00005152A434FF6FF352B404FF2FF752B404A
:102C00008D8906EA85052B43CD8906EA85052B4388
:102C100083800483CD880587028470BD70B500244D
:102C200000220023058C4FF6FF6635400584028C98
:102C30008388848B4FF68F752C404FF6FC752C40A3
:102C40000D882C434FF6FF552A400D894FF6FF762D
:102C500006EA05252A434D8806EA05252A431F4D25
:102C6000A84202D0234DA8421DD14FF2FF752A4041
:102C70004D894FF6FF7606EA05252A434FF6FF35C4
:102C80002A408D8806EA05252A434EF6FF752B401B
:102C90004DF6FF752B408D8906EA05152B43CD892E
:102CA00006EA05152B4383808483CD8885870284BB
:102CB00070BD70B5002200230024058C4EF6FF760F
:102CC00035400584038C8488828B48F6FF752A4042
:102CD0004FF6FF452A400D8820E00000002C0140FF
:102CE0000004004000080040000C004000100040BC
:102CF0000014004000340140004C014000500140ED
:102D00000054014000180040001C0040002000401A
:102D10000040014000440140004801404FF6FF766A
:102D200006EA05252A434DF6FF752B400D8906EA74
:102D300005352B434D8806EA05352B43FA4DA8424D
:102D400002D0FA4DA84208D14BF6FF752C408D8970
:102D50004FF6FF7606EA85152C4384808283CD8862
:102D6000A0F84050038470BD828B4FF2FF331A40AD
:102D70008283828B4FF6FF7303EA01231A43828317
:102D80007047F0B50C461546002200210026078C3E
:102D90004EF6FF7C07EA0C070784828B018C4FF606
:102DA000FF7707EA043640F6FF473A404FF6FF77D1
:102DB00007EA05273A434FF6FF7707EA03373A4316
:102DC000D94FB8420ED0D94FB8420BD0B0F1804F96
:102DD00008D0D74FB84205D0D64FB84202D0D64F10
:102DE000B84206D14DF6FF77394046F48057394353
:102DF00005E047F6FF57394044F480573943828352
:102E00000184F0BD828B4FF6F3731A408283828B6C
:102E10000A4382837047F0B50C4615460022002114
:102E20000026078C4FF6FF6C07EA0C070784828B9D
:102E3000018C4FF6FF7707EA04264FF60C773A40ED
:102E40004FF6FF7707EA03172F433A43B64FB842CE
:102E50000ED0B64FB8420BD0B0F1804F08D0B44F6F
:102E6000B84205D0B34FB84202D0B34FB84206D1F2
:102E70004FF6FF57394046F48077394305E04FF26B
:102E8000FF57394044F48077394382830184F0BD91
:102E9000028B4FF2FF331A400283028B4FF6FF730F
:102EA00003EA01231A4302837047F0B50C46154626
:102EB000002200210026078C4FF6EF7C07EA0C0762
:102EC0000784028B018C4FF6FF7707EA041640F661
:102ED000FF473A404FF6FF7707EA03373A434FF68A
:102EE000FF7707EA05273A438F4FB8420ED08F4F3E
:102EF000B8420BD0B0F1804F08D08D4FB84205D00A
:102F00008C4FB84202D08C4FB84206D14FF6DF77D3
:102F1000394046F01007394305E04FF65F773940F6
:102F200044F01007394302830184F0BD028B4FF651
:102F3000F3731A400283028B0A4302837047F0B591
:102F40000C46154600220021068C4FF6FE773E40C7
:102F50000684028B018C4FF60C7632407E1C06EA0A
:102F600003162E433243704EB0420ED06F4EB04225
:102F70000BD0B0F1804F08D06D4EB04205D06D4EF1
:102F8000B04202D06C4EB04206D14FF6FD763140D1
:102F900044F00106314305E04FF6F576314044F048
:102FA0000106314302830184F0BD70B505460C462D
:102FB0005D4885420ED05D4885420BD0B5F1804F0B
:102FC00008D05B48854205D05A48854202D05A480D
:102FD000854200D100E000BF208850B92389A28833
:102FE00061882846FFF7ABFFE1882846FFF79EFF80
:102FF00025E0208804280AD12389A28861882846F0
:10300000FFF753FFE1882846FFF742FF17E02088CB
:1030100008280AD12389A28861882846FFF7FBFE89
:10302000E1882846FFF7EEFE09E02389A28861883F
:103030002846FFF7A6FEE1882846FFF795FE70BDFB
:103040002DE9F04105460C4600260127608808B9A5
:10305000022600E00026A088012801D1022700E016
:1030600001272088A0B92389A28861882846FFF714
:1030700066FFE1882846FFF759FF23893A46314623
:103080002846FFF712FFE1882846FFF701FF13E00B
:103090002389A28861882846FFF707FFE188284630
:1030A000FFF7F6FE23893A4631462846FFF747FFE9
:1030B000E1882846FFF73AFFBDE8F0810A884B888F
:1030C0001A438B881A43CB881A430B891A434B89BE
:1030D0001A438B891A43A0F8442070474FF6FF71BA
:1030E000818000210180C1804180017270470021F0
:1030F000018041808180C180018141818181C181C4
:103100007047002101804180012181800021C18020
:10311000018170470021018041808180C18001814F
:103120004181818170470000002C01400034014042
:103130000004004000080040000C004021B102885B
:1031400042F00102028004E002884FF6FE731A404A
:103150000280704731B1B0F8442042F40042A0F838
:10316000442005E0B0F84420C2F30E02A0F8442049
:1031700070471AB183890B43838102E083898B43B3
:10318000838170478182704741EA0203A0F848308A
:1031900070471AB183890B43838102E083898B4393
:1031A0008381704701894FF6F872114001817047A1
:1031B0000A46002101894FF68F731940114301819E
:1031C000704730B504460D4629462046FFF7F0FF0C
:1031D000208940F00700208130BD2DE9F0410446F0
:1031E0000D4616461F46602D06D13B46012231464C
:1031F0002046FFF75AFE05E03B46012231462046B5
:10320000FFF79DFE29462046FFF7D2FF208940F0B8
:1032100007002081BDE8F08130B50C46002101890E
:10322000C9B24FF6FF7505EA032515432543294327
:10323000018130BD2DE9F04105460E4617469846FE
:10324000002443463A4631462846FFF7E5FF2C89DD
:103250004FF6F870044044F007044FF68F700440B6
:1032600044F070042C81BDE8F081F0B504460D46B1
:1032700016461F463B46324629462046FFF7CCFFFE
:10328000208940F480402081F0BD01858282704712
:103290000A46002101884FF68F73194011430180BF
:1032A0007047F0B50C4615461E460021002200234B
:1032B0000189028B038C4FF6F877394021434FF692
:1032C000FC473A4040F201173A434FF6DD773B4066
:1032D0004FF6FF7707EA06172F433B43018102832E
:1032E0000384F0BD0A460021018B4FF68F7319400D
:1032F0001143018370470A460021018B48F6FF7392
:1033000019404FF6FF7303EA022319430183704704
:103310000A460021818B4FF68F7319401143818338
:1033200070470A460021818B48F6FF7319404FF61B
:10333000FF7303EA022319438183704721B1028896
:1033400042F08002028004E002884FF67F731A4048
:103350000280704721B1828842F00402828004E03A
:1033600082884FF6FB731A408280704721B18288B1
:1033700042F00802828004E082884FF6F7731A4018
:103380008280704721B1828842F00102828004E08D
:1033900082884FF6FE731A40828070470A460021E9
:1033A000018B4FF6F77319401143018370470A46AA
:1033B0000021018B4FF2FF7319404FF6FF7303EAB0
:1033C00002231943018370470A460021818B4FF67F
:1033D000F77319401143818370470A460021818B9E
:1033E0004FF2FF7319404FF6FF7303EA02231943AC
:1033F000818370470A460021018B4FF6FB73194009
:103400001143018370470A460021018B4FF6FF33B9
:1034100019404FF6FF7303EA0223194301837047F3
:103420000A460021818B4FF6FB73194011438183BB
:1034300070470A460021818B4FF6FF3319404FF643
:10344000FF7303EA02231943818370470A46002170
:10345000018B4FF67F7319401143018370470A4671
:103460000021018BC1F30E014FF6FF7303EA022323
:103470001943018370470A460021818B4FF67F7301
:1034800019401143818370470A460021818BC1F3A3
:103490000E014FF6FF7303EA02231943818370473D
:1034A0000A460021018C4FF6FD7319401143018437
:1034B00070470A460021018C4FF6F77319401143FB
:1034C000018470470A460021018C4FF6DF731940D2
:1034D0004FF6FF7303EA02131943018470470A464B
:1034E0000021018C4FF67F7319404FF6FF7303EAFA
:1034F00002131943018470470A460021018C4FF6DC
:10350000FF5319404FF6FF7303EA02231943018466
:1035100070470A460021018C4FF2FF7319404FF6A5
:10352000FF7303EA02231943018470470A4600210E
:10353000018C4DF6FF7319404FF6FF7303EA023317
:1035400019430184704730B5002301248C40A3B295
:10355000048C9C430484048C02FA01F5ADB22C4324
:10356000048430BD30B5002304248C40A3B2048C05
:103570009C430484048C02FA01F5ADB22C4304840C
:1035800030BD70B5034600200024184618300125D0
:103590008D40ACB21D8CA5431D8409B1082909D109
:1035A00000EB6100056825F07005056005681543AE
:1035B00005600EE00D1FC5F34E052844056825F48F
:1035C000E045056005684FF6FF7606EA02263543BA
:1035D000056070BD21B1028842F00202028004E061
:1035E00002884FF6FD731A400280704721B10288AD
:1035F00042F00402028004E002884FF6FB731A4096
:103600000280704721B1828842F08002828004E00B
:1036100082884FF67F731A408280704702884FF687
:10362000F7731A40028002880A430280704782883A
:103630004FF68F731A40828082880A4382807047D7
:1036400002894FF6F8731A40028102890A43028107
:10365000704702894FF67F731A40028102890A433C
:1036600002817047818470478185704781867047E9
:103670000187704781877047A0F840107047028823
:103680004FF6FF431A40028002880A4302807047C7
:103690000146888E70470146088F70470146888F23
:1036A00070470146B1F8400070470146888C70476A
:1036B0000146088D704702460020138A0B400BB16B
:1036C000012000E000207047CA430282704730B5F5
:1036D0000246002000230024158A05EA010395898B
:1036E00005EA010413B10CB1012000E0002030BD57
:1036F000CA430282704770477047704770477047EF
:1037000010B500F009F8006810BD10B5044600F0CF
:1037100003F8046010BD00000048704784020020D8
:1037200000487047840200207546FFF7F9FFAE4657
:1037300005006946534620F00700854618B020B5BD
:10374000FEF73AFABDE820404FF000064FF00007C0
:103750004FF000084FF0000B21F00701AC46ACE839
:10376000C009ACE8C009ACE8C009ACE8C0098D46A6
:1037700070470446AFF300802046FCF720FD490067
:1037800050EAC12018BF04204A0D18BF40F00100C4
:1037900040F2FF72B2EB515F08BF40F00200012817
:1037A00008BF0520704700002DE9F74F144694B07C
:1037B0000021C4E902111599079121F00045C9497A
:1037C0008D4206DC1599C4E9000117B00020BDE860
:1037D000F08FC549DFF814A3A9423CDD0799C44E18
:1037E0000029C44FC44A1599534619DD01F0DCFD88
:1037F000554506D0C14AC24B01F0D6FDC4E90001CF
:103800000AE04FF0D352BE4B01F0CEFD32463B46AC
:1038100001F0CAFDC4E9000117B00120BDE8F08F36
:1038200001F0C4F8554506D0B44AB54B01F0BEF8D6
:10383000C4E900010AE04FF0D352B14B01F0B6F8F1
:1038400032463B4601F0B2F8C4E9000117B04FF030
:10385000FF30BDE8F08FAB49A942159978DB21F024
:10386000004183468846A84AA84B01F077FB002216
:10387000A74B01F09BF801F0ADFA099001F007FBAE
:1038800006460F469C4A534601F068FB43465A469B
:1038900001F098FC80468A46984A994B3046394652
:1038A00001F05CFB2A0D01250B924246534601F0C4
:1038B00089FC032DC4E9000139D00B98C1F30A51EA
:1038C000401A05EB45111139814230DA9148C3465F
:1038D000784400EB0510CDF80CA00C90D0E9002343
:1038E0003046394601F03AFB02460B4604910690F9
:1038F0005846039901F058FD80468A4602460B4619
:103900005846039901F050FD049B069A01F04CFDC6
:1039100083460C9803913946D0E90223304601F0E2
:103920001DFB5A46039B01F03FFD6D1CBDE7079848
:103930000028A2BF099817B0BDE8F08F616881F038
:1039400000416160099817B04042BDE8F08FFFE781
:1039500084461598C1F31301C0F30A50A0F2F53064
:103960004FEA601800F01F06C6F1200013900020F7
:103970000690079041F4801E05206D4676B1664A98
:1039800008EB00017A4452F8213002EB8101B34088
:103990004A68139922FA01F1194305E05F4908EBDF
:1039A0000002794451F82210A1FB0E27A1FB0C1351
:1039B0001A449A4234BF0123002303EB070A05EBA4
:1039C0008003D3E901B70F448F4234BF01210021A6
:1039D00093448B4411B1934502D903E0934501D23E
:1039E000012100E00021C3E901B7514445F820104E
:1039F000011EA0F10100C1DC0298059F00F10050FA
:103A0000800F12900298DDE90356800001F03FFA22
:103A1000834628460D9101F051FA6FF01D0202F025
:103A2000AEF8CDE90E01304601F048FA6FF03D02E4
:103A300002F0A5F880468A46384601F03FFA6FF05A
:103A40005D0202F09CF8074642465346119100F091
:103A5000ADFFDDE90E2300F0A9FF5A460D9B00F0F3
:103A6000A5FF00250E465A4628460D9B01F09CFCFA
:103A7000DDE90E2301F098FC4246534601F094FC28
:103A80003A46119B01F09EFBDFF898A0244A53466A
:103A900001F064FA07468846234A244B31462846FB
:103AA00001F05CFA3A46434600F080FF074688463C
:103AB0004FF0A84253463146284601F04FFA3A46A5
:103AC000434600F073FF159A12F0004F04D0129A8B
:103AD00081F0004152421292C4E90001129817B0DD
:103AE000BDE8F08FFB21E93F7CD90240FB21F93F83
:103AF0007370032E8A19A33B000040543163621A8D
:103B000061B4D03DFB21394183C8C96D305FE43FCA
:103B10000000E03F1448000090470000724700009A
:103B2000182D4454FB21F93D3326A611460B113CB8
:103B30002DE9FF4D21F0004807460C46B8F1795FAA
:103B400008DA01F047F9002801BF0020324904B02B
:103B5000BDE8F08D3A4623461046194601F0FEF9BD
:103B6000054602462D480E460B460621784400F0D5
:103B70005DF82A46334601F0F1F9DDE90223824679
:103B80008B463846214601F0E9F904460F46524675
:103B90005B462846314601F0E1F922463B4601F0FA
:103BA00003FC07468A464FF0FF322846314601F0B3
:103BB000E6FF1B4A90450ADA3A46534601F0F4FB09
:103BC00004B00022BDE8F04D134B01F0FBBA154ADA
:103BD0004245A8BFA8F500154FF00004B8BF124D2C
:103BE00022462B4601F0E0FB0646884622462B463D
:103BF0000020094901F0D8FB04460D463A465346D9
:103C00003046414601F0D0FB04B022462B46BDE8C9
:103C1000F04D01F0D7BA00000000F03F4045000031
:103C20003333D33F0000E93F0000D23F2DE9F0419C
:103C30004F1E00EBC7010446D1E9000115461E46A0
:103C400037F006020DD02A46334601F087F97F1E71
:103C500004EBC703D3E9002300F0A8FE37F0060207
:103C6000F1D1022F25D0042F13D0062F18BFBDE8A5
:103C7000F0812A46334601F071F9D4E90A2300F0B5
:103C800095FE2A46334601F069F9D4E9082300F08D
:103C90008DFE2A46334601F061F9D4E9062300F08F
:103CA00085FE2A46334601F059F9D4E9042300F091
:103CB0007DFE2A46334601F051F9D4E9022300F093
:103CC00075FE2A46334601F049F9D4E90023BDE8E0
:103CD000F04100F06BBE00002DE9FF4D054621F0DC
:103CE000004084B00C46B0F1795F0BDA2846FFF74C
:103CF00046FD042808BF00F07FF8284608B021469A
:103D0000BDE8F08D2A460B46104601F027F906461D
:103D10000F462A46234601F021F9804626488A4666
:103D200032463B4605217844FFF780FF83461098D2
:103D3000029160B3214A224B4046514601F00EF9F0
:103D4000CDE900015A4640465146029B01F006F972
:103D500082468846DDE906014FF0FF3201F00FFF91
:103D60005246434601F020FB32463B4601F0F6F84E
:103D7000DDE9062301F018FBDDE9002301F014FB67
:103D800008B02A462346BDE8F04D01F01BBA0B46A9
:103D90005A463046394601F0E1F8084A084B00F02F
:103DA00005FE4246534601F0D9F808B02A4623469C
:103DB000BDE8F04D00F0FABD864400004955555568
:103DC0005555C5BF002213461046014900F0AABE52
:103DD0000000F03F012201F0D2BE00F0E7BD00225A
:103DE00013461046114600F09DBE40F201320020FD
:103DF0004FF0E04101F0C3BE024A0020110701F07C
:103E0000BEBE000001FDFFFF00B5244B21F00042C3
:103E100087B09A42DCBF0022134629DD204B9A422C
:103E200008D140B94FF00100FFF76FFCFFF7D7FF53
:103E300007B000BD03DBFFF7CDFF07B000BD02AA4E
:103E4000FFF7B2FC10F0030104BF0DF1080C9CE871
:103E50000F000DD0012001290ED0022914D00DF140
:103E6000080C00909CE80F00FFF736FF07B000BD7C
:103E7000FFF75EFE07B000BD0DF1080C00909CE856
:103E80000F00FFF729FF05E00DF1080C9CE80F007B
:103E9000FFF74EFE07B081F0004100BDFB21E93F76
:103EA0000000F07F2DE9F04D16460F4694B01C46F9
:103EB00021F0004123F00042002814BF4FF0010C14
:103EC0004FF0000C0CEB470CFE4B0CEB03054FEADC
:103ED000630C65452BD3350018BF012505EB440560
:103EE0001D44F94B9D4222D3F84B52EA060C02D0F6
:103EF0009F4205D148B914B000201946BDE8F08DA5
:103F0000002808BF4FF0000C01D04FF0010C0CEB63
:103F1000470313F5001F0AD8002E14BF4FF0010C01
:103F20004FF0000C0CEB440313F5001F07D914B03D
:103F3000324623463946BDE8F04DFFF74EBFDFF865
:103F400090834FF0000A002FB8BF424523DAE14BBF
:103F50009A42A8BF4FF0020A1DDADC4B93421ADCEA
:103F6000DD4B03EB2253142B08DDC3F1340C26FA8E
:103F70000CF303FA0CFCB4450DD108E05EB9C3F1B3
:103F8000140C22FA0CF303FA0CFC944503D103F051
:103F90000103C3F1020A51EA00031BD1002C19DA14
:103FA000002F18BFBAF1020F02D0BAF1010F07D0EB
:103FB0000220FFF7AAFB14B0BDE8F04DFFF702BFE7
:103FC0000220FFF7A2FBFFF7FDFE14B081F00041D5
:103FD000BDE8F08D330070D1424525D107F1804214
:103FE00012F5801201BF00280020B84914B008BFA4
:103FF000BDE8F08DB548884207DC002CA1BF18460B
:10400000214614B0BDE8F08D07E0002CBFBF184674
:1040100084F0004114B0BDE8F08DB0497944D1E995
:10402000000114B0BDE8F08DDFF8A0C262452AD1CE
:10403000002C24DA39B1414517D1002804BF0020F3
:1040400002461CD106E040B10220FFF75EFBFFF7FD
:10405000CCFE0A46394600F0D7BA9D4A394614B01C
:10406000002062F31E01BDE8F08D08DA14B03B4673
:10407000BDE8F04D02460020614600F053BD14B08B
:104080003946BDE8F08D414517DAB4F1804F0CD0C8
:10409000A4F10053B3F1FF530FD13B1E0DDB14B05D
:1040A0001946BDE8F04D00F029BC3B4614B002466D
:1040B000BDE8F04D194600F051BF050027F0004360
:1040C0003AD1E1B1414537D1002F06DD002CA1BF27
:1040D0000020414614B0BDE8F08D002F01DD002C1A
:1040E0001FDB002F16DA002C14DBBAF1010F4FF0A2
:1040F000000014BF76497A4914B0BDE8F08DBAF1DA
:10410000020F18BF002F0CD0BAF1010F09D1002FF8
:1041100007DA0BE0002FB8BF002C0DDABAF1010F5F
:1041200004D0002014B00146BDE8F08D14B000208A
:104130004FF00041BDE8F08D4FF0010808EBE77C3F
:10414000CDF814C05CEA0A0C0DD0DFF898C16245C6
:104150007EDDDFF894C1654B624512DD8B420ADBE0
:10416000002C18DB23E00120FFF7CFFA14B0BDE8E4
:10417000F04DFFF734BE554A8A4202DC002C0ADCBF
:1041800015E0994202DA002C11DA04E04F4B994213
:1041900019DD002C0BDD0220FFF7B7FAFFF725FE33
:1041A0004B4A14B061F31E021146BDE8F08D0220A7
:1041B000FFF7ABFAFFF720FE444A14B061F31E028A
:1041C0001146BDE8F08D0022394601F0EDF80746B2
:1041D0000D466FF0010201F0D2FC4FF05532444B16
:1041E00000F0F0FF3A462B4600F0B8FE0022414BAB
:1041F00000F0E8FF80468B463A462B4610461946AB
:1042000000F0ACFE42465B4600F0A8FE88460E90E9
:104210004FF0C042384B3846294600F09FFE834697
:104220000091364A344B41460E9800F097FE804686
:104230000191334A334B3846294600F08FFE4246FF
:10424000019B01F0B1F80D4602460B460C9000E0D0
:1042500011E05846009900F0A9FB002788465A460D
:104260003846009B01F0A0F82B460C9A00F0AAFFFC
:10427000024600F079B90020B1F5801F07DA352237
:104280002846194601F07BFC05466FF0340000EB30
:104290002150A0F2FF300190C1F3130040F07F6184
:1042A00041F04051029118498842D8BF4FF0000BAD
:1042B00035DD16498142C8BF4FF0010B2FDC4FF0AE
:1042C000000B25E0FFFF1F00FFFF0F000000F03F85
:1042D0000000F07F0000404301FCFFFFC0400000F1
:1042E0000000F0FF0000E0410000F043FFFFEF3F5F
:1042F0005555D53F0000E03F4715F73FFE822B653F
:1043000044DF5DF80BAE543E8E9803007AB60B0086
:104310000198401C01900298A0F580100290FF487F
:104320000299784400EBCB000991D0E9002328469C
:104330000B93129201F038F800910A9028460B9BDB
:10434000129A099900F032FB02460B460020F4490C
:1043500000F0E8FBCDE90C010B46024600990A98F3
:1043600000F0FCFD0690EF4888460027784402994B
:10437000006810904FF0005040EA610000EB8B4065
:1043800000F5002102910B9B129A109801F00CF895
:104390002A46099B00F016FF3A46434600F0DEFD30
:1043A0000891129038464146029B109A00F0D6FDC3
:1043B000009B0A9A00F006FF089B129A00F0F4FF97
:1043C000DDE90C2300F0CAFD0B91069A12904346DA
:1043D0001046194600F0C2FD05460246D2480B467B
:1043E0000A9106217844FFF721FC0A9B2A4608918E
:1043F00002901046194600F0B1FD089B029A00F0A9
:10440000ADFD05460991434638461946069A00F027
:10441000CDFA0B9B129A00F0A1FD2A46099B00F0F1
:10442000C5FACDE908013A4643461046194600F060
:1044300095FD0A910022BD4B009000F0B7FADDE92E
:10444000082300F0B3FA0D463A46B84B384600F060
:10445000ABFF0A9B009A00F0A7FFDDE9082300F0FC
:10446000B1FECDE908013A462B461046414600F020
:1044700075FD00910A90DDE908014346069A00F0B7
:104480006DFD069088462B463A460B99129800F02F
:1044900065FD4346069A00F089FA80460B460246BF
:1044A0000D9100990A9800F081FA00200F46054608
:1044B000009B0A9A00F078FF42460D9B00F082FEB6
:1044C00088460E904FF06042994B2846394600F0DE
:1044D00045FD02910090974A954B41460E9800F099
:1044E0003DFD80460391944A944B2846394600F09E
:1044F00035FD4246039B00F059FA914A7A4402EB9B
:10450000CB03D3E9002300F051FA05460791019847
:1045100000F0BDFC0C9003912A46079B029900987D
:1045200000F044FA874A7A4402EBCB03D3E9002334
:104530009346019300F03AFA039B0C9A00F036FA86
:10454000002788463846039B0C9A00F02DFF5A46F8
:10455000019B00F029FF029B009A00F025FF2A46EC
:10456000079B00F02FFE02460020069005986C4D38
:10457000AAF10103184301D1734D069000200B46A8
:1045800004903046214600F0E9FC82468B462346E3
:1045900030461946049A00F007FF3A46434600F0B9
:1045A000DDFC52465B4600F001FA06468A463A4672
:1045B00043462146049800F0D1FC04460F4632469B
:1045C000534600F0F3F9614A8B46914221DBABEB95
:1045D000020353EA000210D122463B4600F0E4FEFB
:1045E000804603915A4A5B4B3046514600F0DEF953
:1045F0004246039B00F0B0FD27D20220FFF785F86A
:10460000FFF7F3FB0A46294614B062F31E01BDE82A
:10461000F08D514B2BF000429A4216D34F4A0BEBD0
:10462000020353EA000208D122463B4600F0BCFEDA
:104630003246534600F090FD07D80220FFF765F898
:10464000FFF7DAFB0A462946DEE72BF00040444933
:10465000444A01EB20514FF00008824223DA481C03
:104660004FF4801121FA00F058443F4AC0F30A5138
:104670007A443E4BA1F2FF31CB4020EA0303C0F362
:10468000130040F4801CC1F1140012682CFA00F8E9
:10469000BBF1000FB8BFC8F100082046394600F052
:1046A00083FE04460F4622463B463046514600F004
:1046B0007DF94FF0000B5A462D4B5846039100F000
:1046C0004DFC00910A902B4A2B4B5846039900F061
:1046D00045FC0491029022463B465846039900F05F
:1046E00063FE3246534600F06DFD244A244B00F031
:1046F00035FC049B029A00F059F907468A46009B54
:104700000A9A00F053F904460E46009B0A9A00F0FC
:104710004BFE3A46534600F055FD33E0023D0000A3
:104720000000F03F703D0000703C000000000840B9
:1047300009C7EE3FFD033ADCF5015B14E02F3EBEF6
:10474000483B00000E3B00000000F0BF000090401E
:10475000FE822B654715973C00CC904000346F3F9C
:1047600001FCFFFF0000E03F6C3A0000FFFF0F007C
:10477000432EE63F396CA80C615C20BEEF39FAFE8F
:10478000422EE63F0746224633460F911046194611
:1047900000F0E4FB834602462E488A460B4605217C
:1047A0007844FFF743FA5A46534600F0D7FB2246B7
:1047B000334600F007FD82468B463A462046314696
:1047C0000F9B00F0CBFB3A460F9B00F0EFF80F4633
:1047D0000A9000224FF080435046594600F0E4FD15
:1047E0000391009052465B462046314600F0B6FBEE
:1047F000039B009A00F096F93B460A9A00F0D4FD1C
:104800002246334600F0D0FD0022134B00F0DAFCC4
:104810000E46044601EB08510815002810DC4246FC
:104820002046314601F0ABF9FEF7A9FF042808BF86
:10483000FFF7E2FA42462046314601F0A0F904466D
:1048400006980B4614B022462946BDE8F04D00F00C
:1048500085BB0000E43800000000F03F00B5254BA8
:1048600021F0004287B09A4203DC002213460092F6
:104870002BE0214B9A4208D140B94FF00100FEF7DE
:1048800044FFFFF7ACFA07B000BD03DBFFF7A2FA65
:1048900007B000BD02AAFEF787FF10F003014FF03A
:1048A00001000DD0012914D002291AD00DF1080CF5
:1048B0009CE80F00FFF73CF907B081F0004100BD14
:1048C0000DF1080C00909CE80F00FFF705FA07B007
:1048D00000BD0DF1080C9CE80F00FFF729F907B0A7
:1048E00000BD0DF1080C00909CE80F00FFF7F4F9F3
:1048F000E2E70000FB21E93F0000F07F2DE9F041F5
:1049000006460F4600F06AFC04000D4618BF012061
:10491000284320F00040C0F17F6000F1E040C00F6C
:104920000ED0301C18BF0120384320F00040C0F1E9
:104930007F6000F1E040C00F04BF0120FEF7E5FEFC
:1049400020462946BDE8F08121F00042A2F16052E4
:10495000B2F5801F01F0004328BFD2F17F6C0BD964
:104960005FEA001C43EAC20242EB507018BF704776
:1049700028BF20F001007047B2F5801FBCBF184669
:1049800070474FEA410C1CF5001F02D2084601F0A7
:1049900040B870B500F08CFB00000089FFF7F6BF4F
:1049A0004FF00040A0F580007047000010B591EA7C
:1049B000030F48BF83F0004300F1FE84841A71EBBB
:1049C000030C05D2121943EB0C03001B61EB0C0125
:1049D000DFF824E14FEA1154A4EB135C1EEA430F05
:1049E00018BF9EEA445F73D023EA0E03DCF1200E69
:1049F00021EA045143F4801332D322FA0CFE10EB67
:104A00000E0023FA0CFE41EB0E01CCF1200E03FA4E
:104A10000EFE10EB0E0051F10001B1F5801FCCF13C
:104A2000200E32D201EB045112FA0EF2BDE8104012
:104A300058BF7047401C38BF5FEA420218BF70473A
:104A4000002814BF20F0010041F100014FEA4103AA
:104A500013F5001F38BF7047A1F1C04100F076BBCD
:104A6000012A43EB0302ACF1200CDCF11F0E32BF34
:104A70004FF0000E23FA0CF310EB030041EB04514E
:104A8000B4EB115FD0D0A1EB045101F580114908BE
:104A90005FEA300001EB04510ED350F1000038BF43
:104AA00012FA0EFE08D1BDE81040C9E7401C38BF1D
:104AB0005FEA4202CAD1C3E7BDE810404FEA4103B2
:104AC00013F5001F38BF7047A1F1C04100F03EBB95
:104AD0009EEA445F08D011EA5E0FBDE8104004BFB3
:104AE00001F0004100207047BDE8104070B500F0B3
:104AF000DFFA00BF64FBBE3E0000E0FF02494FF05A
:104B0000000001F00AB800BF0000F87F491058BF4C
:104B1000C1F140415B1058BFC3F140438B42EFF3FA
:104B2000008070472DE9C04130B4DFF8A0C23CEAF4
:104B3000111418BF3CEA131400F0EC8081EA03055D
:104B40001CEA111444EAD57418BF1CEA131500F0CE
:104B5000C780A4EB05044FF0004545EAC12145EAB2
:104B6000C32341EA505143EA525304F17F749942FE
:104B700004F500344FEAC0204FEAC22208BF904239
:104B800000F09C804FEA13650FF24016765D4FEA05
:104B9000134506FB05F7C7F1807706FB07F74FEAD9
:104BA000D737A7FB03687642C8F58038A7FB06CE47
:104BB00038BFA8F1010807FB08E64FF0000EA6FB7E
:104BC000028CE6FB03CEDCF1000CCEF1004E38BFC8
:104BD000AEF1010EA6FB0C584FF000074FF0000598
:104BE000E6FB0E87A1FB08C6A0FB07CE16EB0E0660
:104BF00045F10005E1FB076515F1E04E7EBFA4F528
:104C000080345FEA46066D4116F1800745F10005E4
:104C10004FEA17274FEA066647EA0567A6F1DE4620
:104C2000B6F1805F4FEA15251FD9384624F0010CF4
:104C300005EBC471BCF1FE6F01EB0C1102D8F0BCA6
:104C4000BDE8008124425CBF01F5801E9EEAC47F5E
:104C500002D4F0BCBDE80081244238D4F0BCA1F1FC
:104C6000C041BDE8004100F071BA4FEAD22242EAE9
:104C700043524FEAD323A7FB02864FEAD02040EAF3
:104C8000415007FB03661EEA0E0F4FEAD12105FBD8
:104C9000026658BFA6EB0056B6EB00564FEA520E1E
:104CA0004EEAC37E18EB0E0E56EB530EBDD518EB35
:104CB00002085E417F1C55F10005B6E74FF48015F0
:104CC0004FF000074FF000064FF00008ADE7F0BCD2
:104CD0004FF0000001F1C04101F00041BDE800814A
:104CE00011EA0C1F0CEA131500D00CE013EA0C1F9C
:104CF00000F025804FF00000F0BC81EA030101F0D4
:104D00000041BDE80081F0BCBDE8004181EA03013B
:104D100000F01CBAF0BCBDE8004170B500F0C8F965
:104D2000097EFC3E00F007B881EA03014FF0000065
:104D300001F00041704781EA030100F007BAF0BCBE
:104D4000BDE800414FF0000021497047FFFDFBF92D
:104D5000F7F5F4F2F0EEEDEBE9E8E6E4E3E1E0DEAE
:104D6000DDDBDAD8D7D5D4D3D1D0CFCDCCCBCAC820
:104D7000C7C6C5C4C2C1C0BFBEBDBCBBBAB9B8B747
:104D8000B6B5B4B3B2B1B0AFAEADACABAAA9A8A83A
:104D9000A7A6A5A4A3A3A2A1A09F9F9E9D9C9C9B08
:104DA0009A999998979796959594939392919190B3
:104DB0008F8F8E8E8D8C8C8B8B8A89898888878744
:104DC0008685858484838382828181800000FF07B9
:104DD0000000F87F4FEA41034FEA5353A3F5806385
:104DE000D3F11E03C8BFD3F1210C0CDD4FF00042FC
:104DF00042EAC12242EA505232FA03FC8CEAE17CD8
:104E0000ACEBE1707047102BC4BF0020704703F576
:104E1000787CBCF1FF3F04D06FF0004282EA2100B1
:104E2000704770B500F044F9499224800020704723
:104E3000F2E700004FEA1153A3F58063D3F11E039C
:104E4000A8BFD3F1200C08DB4FF0004242EAC12298
:104E500052EA505232FA03F0704709420BD4102B39
:104E6000C4BF0020704703F5787CBCF1FF3F05D03C
:104E70004FF0FF3070474FF00000704770B500F002
:104E800017F900BF4992248000207047F0E710F026
:104E9000004248BF4042B0FA80F310FA03F10AD052
:104EA000C3F11D0303F580634FEA415002EB035247
:104EB00002EBD12170474FF000007047B0FA80F349
:104EC00010FA03F10AD0C3F11D0303F580634FEA22
:104ED00041504FEA035202EBD12170474FF00000DE
:104EE0007047000051EA030C17D41CF5801F58BF0F
:104EF000BCF5801F00F10680994218BF704708BFBB
:104F00009042704707D711F5801F58BF13F5801FD7
:104F100019D499427047894270471CF5801F08D503
:104F2000BCF5801FF7D58B4218BF704708BF82427F
:104F300070474FF4001C1CEB410F38BF1CEB430FB4
:104F400001D28B42704770B500F0B2F8922449004C
:104F50004FF000514FF08053FFF7D8BDDFF848C144
:104F600070B51CEA111E1EBF1CEA13159EEA0C0F39
:104F700095EA0C0F00F06F8081EA030423EA4C13DA
:104F80004EEAD47E21EA4C1141F4801143F480139F
:104F9000AE44A1FB024CA0FB0365AEF17F7E361947
:104FA00055EB0C05A1FB034C4CF10003A0FB021CCC
:104FB00016EB0C06654153F10003094218BF46F099
:104FC000010613F4007F0BD14FEA03314FEA05309D
:104FD000340341EA155140EA16506FF003020AE02B
:104FE0004FEAC3214FEAC520F40241EA555140EA95
:104FF00056506FF0020202EB2E4201EB025585EA99
:10500000CE710AD05FEA440C18BF24F0004450F17E
:10501000000041F1000120EAD47040F2FE7C6245BC
:1050200000D270BDA84214BF4FF080444FF04044FE
:10503000002E08BF0024BEF1806FA8BFA1F1C041BF
:10504000BDE8704080F282804FF0000001F1C04165
:1050500001F0004170479EEA0C0F0CEA131518BFCF
:1050600095EA0C0F06D04FF0000081EA030E0EF017
:10507000004170BD00F01CF88900013E00F007B847
:1050800000F009B84FEA430C5FEA5C5C08D081EAA3
:10509000030100F05BB84FEA410C5FEA5C5CF6D1BB
:1050A0004FF00000014970470000FF070000F87F43
:1050B0000EF1020E2EF0030E5EF8046B364205D49C
:1050C000012A43EB030515F5001F12D8012841EB17
:1050D000010C1CF5001F0CD80ED14FEAD17C15F540
:1050E000001F0CEB4C0C0CF1020C08BF4CEBD37CFA
:1050F00004E04FF0080C01E04FEAD37C0CEB4C05C8
:1051000026FA05F606F00706B6F1040C06D20EEBF9
:10511000860CBDE870404CF0010C6047DFE80CF0F5
:10512000090B02024FF000414FF00000A1F50021F1
:1051300070BD19461046012851EB010418BFD4F583
:10514000001484BF002001F0004170BD0808A0F5E4
:1051500000114FEA3101704753EA010C17D41CF5D6
:10516000801F58BFBCF5801F00F106808B4218BF1E
:10517000704708BF8242704707D713F5801F58BF9A
:1051800011F5801F19D48B4270479B4270471CF564
:10519000801F08D5BCF5801FF7D5994218BF70470E
:1051A00008BF904270474FF4001C1CEB430F38BF00
:1051B0001CEB410F01D2994270470FB40CBC03BCE9
:1051C000FFF7C1BE91EA030F10B581F000413FF532
:1051D000F5AB83F0004300F0EFB800002DE9F0419B
:1051E00001F5801CBCF5001FC0F2C3804FEA115CC2
:1051F00021EA0C510CF1FD0C41F480115FEA5C0CCA
:105200000CF5C07C01D3400049413DA4890241EA2C
:10521000905187028E0E0A0CA45D04FB04F602FB7B
:1052200006F6C6F14046A4FB0662F60D46EA4226A3
:1052300006FB06F4A4FB01235242C3F1404338BFEE
:105240005B1EA6FB02420024E6FB0324D20B42EACB
:105250004446A6FB0623A1FB02E2A3FB07E4A41835
:105260004FF0000252F10002E3FB01426442C2F13E
:10527000404E38BFAEF1010EA6FB04234FF00002F2
:10528000E6FB0E32A2FB03464FF00004B61954F1C0
:105290000004E2FB0264A1FB06E6A4FB07E816EBB0
:1052A00008064FF0000858F10008E4FB0168764258
:1052B000C8F1405838BFA8F10108A2FB06E4A3FBDF
:1052C00008E52D194FF0000454F10004E2FB0854E6
:1052D000A1FB05E6A7FB04E818EB06084FF0000663
:1052E00056F10006E1FB048618F1200556F1000690
:1052F000A809A8F11B08B10908F03F08B8F10A0F86
:1053000040EA86601CD901EB0C51BDE8F08100BF7A
:10531000FCF5EEE8E2DDD8D3CFCBC7C3C0BDB9B64C
:10532000B4B1AEACA9A7A5A3A19F9D9B9A98969551
:105330009392908F8D8C8B898887868584838281D8
:10534000A0FB006800FB01F208EB4208B8EB8728DD
:1053500007D5341858EB0104D5D5401C51F1000194
:10536000D1E7341A78EB0104CDD4401E71F100016D
:10537000C9E75FEA4C0C5FEA9C5C0DD105D34FF0A6
:10538000000001F00041BDE8F081BDE8F04170B5DA
:10539000FFF78EFE6DDBFFBEBDE8F0414FF0000071
:1053A000004970470000F87F10B591EA030F48BF2D
:1053B00083F000433FF502AB841A71EB030C07D274
:1053C00012198CF0004C43EB0C03001B61EB0C0139
:1053D000DFF8A4E14FEA1154A4EB135C1EEA430F7B
:1053E00018BF9EEA445F00F0B08023EA6E03524289
:1053F00021EA0451C3EB6E0338BF5B1EDCF1200EC3
:1054000025D322FA0CFE10EB0E0043FA0CFE41EB02
:105410000E01CCF1200E03FA0EFE10EB0E0051F13E
:105420000001CCF1200E29D412FA0EF201EB045146
:10543000BDE8104058BF7047401C1CBFB2F1004F80
:10544000704700280CBF491C20F00100704712EB88
:10545000020E43EB030218BF4FF0010E4EEA420268
:10546000ACF1200CDCF11E0E54D943FA0CFE10EB0B
:105470000E0051F1FF31CCF11E0ED5D50EF1010E0B
:1054800012FA0EFE404141EB010101EB445C5FEA80
:105490005C5C10D910EBDE7001EB045138BFBEF13B
:1054A000004FBDE8104018BF704700280CBF491CD2
:1054B00020F00100704730D24FEAD42C11F50011D2
:1054C00024F400641BD0B1FA81F20B3AA41AA41E92
:1054D000D2F12003914030FA03F31943904001EBDD
:1054E000CC71002C01EB0451BDE81040A8BF7047FF
:1054F00001F1C0414FF0000001F000417047B0FAE7
:1055000080F310FA03F100D110BDE41A173C4805EE
:10551000C90AE4E701EB045110BD491001EB045145
:10552000BDE810404FEA300002E04FF00001704744
:105530004A0008BF0042F8D0B2F5001F28BF7047EC
:1055400001F000414FF0000070479EEA445F07D031
:1055500011EA5E0FBDE8104004BF00210020704733
:10556000BDE8104070B5FFF7A3FD00BF40DFF63E79
:1055700083F00041104670470000E0FF43004FEA0F
:10558000D30C4FEA3C0C43401FBF40070CF1605165
:1055900013F0FE4F70471CF0006F03D100200CF099
:1055A000004170470CF0004343EA507010B540EAE8
:1055B000CC0000F0E8F900BF000000924FEA0001C3
:1055C000FFF7C4BD4FF000414FF00000A1F50021EE
:1055D0007047000090EA010F48BF81F0004100F1E0
:1055E0002E82421A3CBF801A89184FEAD0524FF0DF
:1055F0007F4C1CEA410FA2EBD15318BF9CEA026F0B
:1056000000F03B804FF0004C4CEA00204CEA0121B6
:1056100021FA03FC10EB0C0C1ED202F1FF325FEA00
:105620001C2040EBC25038BF70471CF07F0F4FEA80
:10563000400C18BFBCF17F4F38BF7047C3F1200347
:10564000994008BF20F00100BCF17F4F38BF704780
:10565000A0F1C04000F0DDB94FEA3C00000A40EB89
:10566000C25028BF1CF0FF0F4FEA400CE6D018BF15
:10567000BCF17F4F38BF7047EAE79CEA026F05D064
:1056800010EA5C0F08BF00F00040704710B500F052
:105690007AF900BF64FBBE3E4FF47F0C1CEAD012C7
:1056A0001EBF1CEAD11392EA0C0F93EA0C0F00F014
:1056B000858090EA010F48BF42F4807240F4000CEC
:1056C00041F400002CF07F4120F07F4000B5814282
:1056D000A2EB03020FF2081CACEB504EC0F100002D
:1056E0009EF800E04FEA4E0E00FB0EFC38BF49006A
:1056F0004FEA2C1C02F5FA020CFB0EF34FEACE1E09
:105700004FEA112C4FEAC1210EEB635E42EB2242BD
:105710000EFB0CFC4FEA1C5300FB03114FEA112C4B
:105720004FEA01310EFB0CFC4FEADC4C00FB0C1184
:10573000C14228BF09184CEB03335DF804EB10EBB2
:10574000410143EBC250B2F57C0F38BF704729D5F9
:1057500012F0F00F1CBF00F1C04000F00040704795
:10576000008182838485868788898B8C8D8E8F913A
:105770009293959697999A9C9D9FA0A2A3A5A7A85E
:10578000AAACAEB0B2B3B5B7B9BCBEC0C2C5C7C98A
:10579000CCCED1D4D7D9DCDFE2E6E9ECF0F3F7FAEE
:1057A000FE0000004FEA400C0CF1807CBCF17E4F03
:1057B00028BF7047B0F1C04000F02BB990EA010F4C
:1057C0000CEAD11348BF42F48072624538BF63458A
:1057D00007D213F47F0F16D080EA010000F00040DA
:1057E000704710B500F0CFF8097EFC3E00F005B818
:1057F00080EA010000F00040704780EA010000F0FC
:10580000004000F006B912F47F0F04BF0248704751
:1058100080EA010000F0FDB80000C07F41000B0EDF
:10582000D3F19E0208D950F400034FEA032323FA70
:1058300002F048BF4042704710B500F0A4F800BF26
:1058400049922480002070476FF0004282EA2000D5
:105850007047000010F0004148BF4042B0FA80F3AA
:1058600010FA03F2C3F19D030BD051EAC35101EBCF
:105870001220530638BF704700F1010008BF20F026
:10588000010070474FF47F0C1CEAD0121EBF1CEAC7
:10589000D11392EA0C0F93EA0C0F00F0478090EAC4
:1058A000010F48BF42F480724FF0004C4CEA0020D8
:1058B0004CEA012102EB0302A0FB0113A2F5000256
:1058C000002918BF43F001035B0028BF4FEA3303F0
:1058D00042EB22425FEA132C4CEBC2502EBFBCEBD2
:1058E000436FB2F57C0F70474FEA036CBCF1004F79
:1058F00008BF20F00100B2F57C0F38BF70470BD510
:1059000082F0FF0212F5803FC8BF704700F1C0402F
:10591000D8BF00F00040704700F5000C5FEA4C0C67
:1059200048BF7047B0F1C04000F073B890EA010F73
:105930000CEAD11348BF42F48072624538BF634518
:1059400004D280EA010000F00040704710B500F07A
:105950001AF800BF8900013E00F007B800F009B84E
:105960005FEA410C5FEA1C6C08D080EA010000F09D
:1059700050B85FEA400C5FEA1C6CF6D14FF0004073
:10598000A0F5800070470EF1020E2EF0030E5EF8B7
:10599000044B244204D44FEA4102B2F17F4F11D8A4
:1059A0004FEA4003B3F17F4F0CD80ED14FEAD07CC1
:1059B000B2F17F4F0CEB4C0C0CF1020C08BF4CEB1E
:1059C000D17C04E04FF0080C01E04FEAD17C0CEBF5
:1059D0004C0324FA03F404F00704B4F1040C06D2D7
:1059E0000EEB840CBDE810404CF0010C6047DFE882
:1059F0000CF0070802024FF00040A0F5800010BD37
:105A00000846420018BFD2F1807288BF00F0004003
:105A100010BDFF2141EAD050C005704780F0004022
:105A200090EA010F7FF5DDAD81F0004100F007B88D
:105A300090EA010F48BF81F000413FF5D2AD421A14
:105A400004D882F00042A0EB020011444FEAD05289
:105A50004FF07F4C1CEA410FA2EBD15318BF9CEAD8
:105A6000026F4AD04FF0004C4CEA00204CEA012172
:105A700021FA03FCB0EB0C0C0FD412F0FE0F36D061
:105A80005FEA4C001DD5001240EBC25038BF704792
:105A90001CF03F0F18BF70470BE0A2F101025FEA54
:105AA0001C2040EBC25038BF70471CF07F0F18BF5E
:105AB0007047C3F12003994014BF401E20F001003D
:105AC000704780084FEA122308BF7047B0FA80FC85
:105AD000A2EB0C02CCF1280C60FA0CF093EA122F26
